:1000000001288316850101308600831286010130A4
:1000100085008613051486010130850086130514BA
:1000200086010130850086130514860101308500A4
:100030008613051486010130850086130514860198
:100040000130850086130514860101308500861372
:1000500005148601013085008613051486010130E0
:10006000850086130514860101308500861305146A
:100070008601013085008613051486010130850054
:100080008613051486010130850086130514860148
:100090000130850086130514860101308500861322
:1000A0000514860101308500861305148601013090
:1000B000850086130514860101308500861305141A
:1000C0008601013085008613051486010130850004
:1000D00086130514860101308500861305148601F8
:1000E00001308500861305148601013085008613D2
:1000F0000514860101308500861305148601013040
:1001000085008613051486010130850086130514C9
:1001100086010130850086130514860101308500B3
:1001200086130514860101308500861305148601A7
:100130000130850086130514860101308500861381
:1001400005148601013085008613051486010130EF
:100150008500861305148601013085008613051479
:100160008601013085008613051486010130850063
:100170008613051486010130850086130514860157
:100180000130850086130514860101308500861331
:10019000051486010130850086130514860101309F
:1001A0008500861305148601013085008613051429
:1001B0008601013085008613051486010130850013
:1001C00086130514860101308500861305140E2858
:1001D00086010130850086130514860101308500F3
:1001E00086130514860101308500861305148601E7
:1001F00001308500861305148601013085008613C1
:10020000051486010130850086130514860101302E
:1002100085008613051486010130850086130514B8
:1002200086010130850086130514860101308500A2
:100230008613051486010130850086130514860196
:100240000130850086130514860101308500861370
:1002500005148601013085008613051486010130DE
:100260008500861305148601013085008613051468
:100270008601013085008613051486010130850052
:100280008613051486010130850086130514860146
:10029000013085008613051486012429013085006C
:1002A0008613051486010130850086130514860126
:1002B0000130850086130514860101308500861300
:1002C000051486010130850086130514860101306E
:1002D00085008613051486010130850086130514F8
:1002E00086010130850086130514860101308500E2
:1002F00086130514860101308500861305148601D6
:1003000001308500F528861305148601013085002B
:1003100086130514860101308500861305148601B5
:10032000013085008613051486010130850086138F
:1003300005148601013085008613051486010130FD
:0803400085004A29861305140B
:02400E00223F4F
:00000001FF